{
  "_format": "hh-sol-artifact-1",
  "contractName": "Proxy",
  "sourceName": "contracts/Proxy.sol",
  "abi": [
    {
      "anonymous": false,
      "inputs": [],
      "name": "StartTransfer",
      "type": "event"
    },
    {
      "inputs": [],
      "name": "getNumber",
      "outputs": [
        {
          "internalType": "int256",
          "name": "",
          "type": "int256"
        }
      ],
      "stateMutability": "pure",
      "type": "function"
    },
    {
      "inputs": [],
      "name": "getWalletAddress",
      "outputs": [
        {
          "internalType": "address",
          "name": "",
          "type": "address"
        }
      ],
      "stateMutability": "nonpayable",
      "type": "function"
    },
    {
      "inputs": [
        {
          "internalType": "address",
          "name": "_walletAddr",
          "type": "address"
        }
      ],
      "name": "setWalletAddress",
      "outputs": [],
      "stateMutability": "nonpayable",
      "type": "function"
    },
    {
      "inputs": [],
      "name": "startTransfer",
      "outputs": [],
      "stateMutability": "nonpayable",
      "type": "function"
    }
  ],
  "bytecode": "0x608060405234801561001057600080fd5b5061024e806100206000396000f3fe608060405234801561001057600080fd5b506004361061004c5760003560e01c806304d2dec614610051578063829c34281461006f578063ac1a386a14610079578063f2c9ecd814610095575b600080fd5b6100596100b3565b604051610066919061016b565b60405180910390f35b6100776100dc565b005b610093600480360381019061008e91906101b7565b6100de565b005b61009d610121565b6040516100aa91906101fd565b60405180910390f35b60008060009054906101000a900473ffffffffffffffffffffffffffffffffffffffff16905090565b565b806000806101000a81548173ffffffffffffffffffffffffffffffffffffffff021916908373ffffffffffffffffffffffffffffffffffffffff16021790555050565b60006002905090565b600073ffffffffffffffffffffffffffffffffffffffff82169050919050565b60006101558261012a565b9050919050565b6101658161014a565b82525050565b6000602082019050610180600083018461015c565b92915050565b600080fd5b6101948161014a565b811461019f57600080fd5b50565b6000813590506101b18161018b565b92915050565b6000602082840312156101cd576101cc610186565b5b60006101db848285016101a2565b91505092915050565b6000819050919050565b6101f7816101e4565b82525050565b600060208201905061021260008301846101ee565b9291505056fea264697066735822122011e215707f652c254e135d8200572aa4376f3d52e7cf6ad46c6faf1ade61f19264736f6c63430008110033",
  "linkReferences": {},
  "deployedLinkReferences": {}
}