{
  "_format": "hh-sol-artifact-1",
  "contractName": "Layer",
  "sourceName": "contracts/Layer.sol",
  "abi": [
    {
      "inputs": [],
      "stateMutability": "nonpayable",
      "type": "constructor"
    },
    {
      "inputs": [],
      "name": "executeFailure",
      "outputs": [],
      "stateMutability": "nonpayable",
      "type": "function"
    },
    {
      "inputs": [],
      "name": "executeStarted",
      "outputs": [],
      "stateMutability": "nonpayable",
      "type": "function"
    },
    {
      "inputs": [],
      "name": "executeSuccess",
      "outputs": [],
      "stateMutability": "nonpayable",
      "type": "function"
    },
    {
      "inputs": [],
      "name": "failure",
      "outputs": [
        {
          "internalType": "bool",
          "name": "",
          "type": "bool"
        }
      ],
      "stateMutability": "view",
      "type": "function"
    },
    {
      "inputs": [],
      "name": "layerType",
      "outputs": [
        {
          "internalType": "string",
          "name": "",
          "type": "string"
        }
      ],
      "stateMutability": "view",
      "type": "function"
    },
    {
      "inputs": [
        {
          "internalType": "string",
          "name": "_layerType",
          "type": "string"
        }
      ],
      "name": "setLayerType",
      "outputs": [],
      "stateMutability": "nonpayable",
      "type": "function"
    },
    {
      "inputs": [],
      "name": "started",
      "outputs": [
        {
          "internalType": "bool",
          "name": "",
          "type": "bool"
        }
      ],
      "stateMutability": "view",
      "type": "function"
    },
    {
      "inputs": [],
      "name": "success",
      "outputs": [
        {
          "internalType": "bool",
          "name": "",
          "type": "bool"
        }
      ],
      "stateMutability": "view",
      "type": "function"
    }
  ],
  "bytecode": "0x608060405234801561001057600080fd5b506108a3806100206000396000f3fe608060405234801561001057600080fd5b50600436106100885760003560e01c806376ffb8871161005b57806376ffb887146100f1578063a6cffbba1461010f578063d963b63514610119578063fad47b3b1461012357610088565b80630b93381b1461008d5780631f2698ab146100ab57806347a58108146100c957806373f6a865146100d3575b600080fd5b61009561013f565b6040516100a29190610326565b60405180910390f35b6100b3610150565b6040516100c09190610326565b60405180910390f35b6100d1610163565b005b6100db6101b5565b6040516100e891906103d1565b60405180910390f35b6100f9610243565b6040516101069190610326565b60405180910390f35b610117610256565b005b6101216102a7565b005b61013d6004803603810190610138919061053c565b6102f8565b005b60018054906101000a900460ff1681565b600160009054906101000a900460ff1681565b6000600160006101000a81548160ff02191690831515021790555060018060016101000a81548160ff0219169083151502179055506000600160026101000a81548160ff021916908315150217905550565b600080546101c2906105b4565b80601f01602080910402602001604051908101604052809291908181526020018280546101ee906105b4565b801561023b5780601f106102105761010080835404028352916020019161023b565b820191906000526020600020905b81548152906001019060200180831161021e57829003601f168201915b505050505081565b600160029054906101000a900460ff1681565b6000600160006101000a81548160ff02191690831515021790555060006001806101000a81548160ff02191690831515021790555060018060026101000a81548160ff021916908315150217905550565b60018060006101000a81548160ff02191690831515021790555060006001806101000a81548160ff0219169083151502179055506000600160026101000a81548160ff021916908315150217905550565b8060009081610307919061079b565b5050565b60008115159050919050565b6103208161030b565b82525050565b600060208201905061033b6000830184610317565b92915050565b600081519050919050565b600082825260208201905092915050565b60005b8381101561037b578082015181840152602081019050610360565b60008484015250505050565b6000601f19601f8301169050919050565b60006103a382610341565b6103ad818561034c565b93506103bd81856020860161035d565b6103c681610387565b840191505092915050565b600060208201905081810360008301526103eb8184610398565b905092915050565b6000604051905090565b600080fd5b600080fd5b600080fd5b600080fd5b7f4e487b7100000000000000000000000000000000000000000000000000000000600052604160045260246000fd5b61044982610387565b810181811067ffffffffffffffff8211171561046857610467610411565b5b80604052505050565b600061047b6103f3565b90506104878282610440565b919050565b600067ffffffffffffffff8211156104a7576104a6610411565b5b6104b082610387565b9050602081019050919050565b82818337600083830152505050565b60006104df6104da8461048c565b610471565b9050828152602081018484840111156104fb576104fa61040c565b5b6105068482856104bd565b509392505050565b600082601f83011261052357610522610407565b5b81356105338482602086016104cc565b91505092915050565b600060208284031215610552576105516103fd565b5b600082013567ffffffffffffffff8111156105705761056f610402565b5b61057c8482850161050e565b91505092915050565b7f4e487b7100000000000000000000000000000000000000000000000000000000600052602260045260246000fd5b600060028204905060018216806105cc57607f821691505b6020821081036105df576105de610585565b5b50919050565b60008190508160005260206000209050919050565b60006020601f8301049050919050565b600082821b905092915050565b6000600883026106477fffffffffffffffffffffffffffffffffffffffffffffffffffffffffffffffff8261060a565b610651868361060a565b95508019841693508086168417925050509392505050565b6000819050919050565b6000819050919050565b600061069861069361068e84610669565b610673565b610669565b9050919050565b6000819050919050565b6106b28361067d565b6106c66106be8261069f565b848454610617565b825550505050565b600090565b6106db6106ce565b6106e68184846106a9565b505050565b5b8181101561070a576106ff6000826106d3565b6001810190506106ec565b5050565b601f82111561074f57610720816105e5565b610729846105fa565b81016020851015610738578190505b61074c610744856105fa565b8301826106eb565b50505b505050565b600082821c905092915050565b600061077260001984600802610754565b1980831691505092915050565b600061078b8383610761565b9150826002028217905092915050565b6107a482610341565b67ffffffffffffffff8111156107bd576107bc610411565b5b6107c782546105b4565b6107d282828561070e565b600060209050601f83116001811461080557600084156107f3578287015190505b6107fd858261077f565b865550610865565b601f198416610813866105e5565b60005b8281101561083b57848901518255600182019150602085019450602081019050610816565b868310156108585784890151610854601f891682610761565b8355505b6001600288020188555050505b50505050505056fea2646970667358221220bae808041c929ea933bf348af322368faaa8e82d077938a87975d20c69a85b3c64736f6c63430008110033",
  "linkReferences": {},
  "deployedLinkReferences": {}
}