{
  "_format": "hh-sol-artifact-1",
  "contractName": "Wallet",
  "sourceName": "contracts/Wallet.sol",
  "abi": [
    {
      "inputs": [],
      "stateMutability": "nonpayable",
      "type": "constructor"
    },
    {
      "anonymous": false,
      "inputs": [],
      "name": "MintSmartTokensForTokens",
      "type": "event"
    },
    {
      "anonymous": false,
      "inputs": [
        {
          "indexed": false,
          "internalType": "address",
          "name": "sender",
          "type": "address"
        },
        {
          "indexed": false,
          "internalType": "uint256",
          "name": "amount",
          "type": "uint256"
        },
        {
          "indexed": false,
          "internalType": "uint256",
          "name": "balance",
          "type": "uint256"
        }
      ],
      "name": "Receive",
      "type": "event"
    },
    {
      "anonymous": false,
      "inputs": [
        {
          "indexed": false,
          "internalType": "address",
          "name": "receiver",
          "type": "address"
        },
        {
          "indexed": false,
          "internalType": "uint256",
          "name": "amount",
          "type": "uint256"
        }
      ],
      "name": "StartTransfer",
      "type": "event"
    },
    {
      "anonymous": false,
      "inputs": [
        {
          "indexed": false,
          "internalType": "address",
          "name": "sender",
          "type": "address"
        },
        {
          "indexed": false,
          "internalType": "address",
          "name": "receiver",
          "type": "address"
        },
        {
          "indexed": false,
          "internalType": "uint256",
          "name": "amount",
          "type": "uint256"
        }
      ],
      "name": "StartTransferFrom",
      "type": "event"
    },
    {
      "inputs": [],
      "name": "getTokenAddress",
      "outputs": [
        {
          "internalType": "address",
          "name": "",
          "type": "address"
        }
      ],
      "stateMutability": "nonpayable",
      "type": "function"
    },
    {
      "inputs": [],
      "name": "owner",
      "outputs": [
        {
          "internalType": "address payable",
          "name": "",
          "type": "address"
        }
      ],
      "stateMutability": "view",
      "type": "function"
    },
    {
      "inputs": [
        {
          "internalType": "address",
          "name": "_tokenAddr",
          "type": "address"
        }
      ],
      "name": "setTokenAddress",
      "outputs": [],
      "stateMutability": "nonpayable",
      "type": "function"
    },
    {
      "inputs": [
        {
          "internalType": "address",
          "name": "receiver",
          "type": "address"
        },
        {
          "internalType": "uint256",
          "name": "amount",
          "type": "uint256"
        }
      ],
      "name": "startTransfer",
      "outputs": [],
      "stateMutability": "nonpayable",
      "type": "function"
    },
    {
      "inputs": [
        {
          "internalType": "address",
          "name": "sender",
          "type": "address"
        },
        {
          "internalType": "address",
          "name": "receiver",
          "type": "address"
        },
        {
          "internalType": "uint256",
          "name": "amount",
          "type": "uint256"
        }
      ],
      "name": "startTransferFrom",
      "outputs": [],
      "stateMutability": "nonpayable",
      "type": "function"
    },
    {
      "stateMutability": "payable",
      "type": "receive"
    }
  ],
  "bytecode": "0x608060405234801561001057600080fd5b5033600160006101000a81548173ffffffffffffffffffffffffffffffffffffffff021916908373ffffffffffffffffffffffffffffffffffffffff1602179055506106ed806100616000396000f3fe60806040526004361061004e5760003560e01c806310fe9ae8146100a957806326a4e8d2146100d4578063604374f0146100fd5780638da5cb5b14610126578063e4f6985214610151576100a4565b366100a4577f7baf877f743c7240b0ee6b03d05a9d82c1d5b9c590beb886830f6f8edd07d8813334476040516100869392919061042f565b60405180910390a1600033905060003490506100a2828261017a565b005b600080fd5b3480156100b557600080fd5b506100be6102c6565b6040516100cb9190610466565b60405180910390f35b3480156100e057600080fd5b506100fb60048036038101906100f691906104b2565b6102ef565b005b34801561010957600080fd5b50610124600480360381019061011f919061050b565b610332565b005b34801561013257600080fd5b5061013b61036f565b604051610148919061056c565b60405180910390f35b34801561015d57600080fd5b5061017860048036038101906101739190610587565b610395565b005b600073ffffffffffffffffffffffffffffffffffffffff1660008054906101000a900473ffffffffffffffffffffffffffffffffffffffff1673ffffffffffffffffffffffffffffffffffffffff1603610209576040517f08c379a000000000000000000000000000000000000000000000000000000000815260040161020090610637565b60405180910390fd5b7f37cbc241ce82bd375b6bf6baab54838c229a2b43ad22127c80237293ad779ef960405160405180910390a160008054906101000a900473ffffffffffffffffffffffffffffffffffffffff1673ffffffffffffffffffffffffffffffffffffffff166340c10f1983836040518363ffffffff1660e01b8152600401610290929190610657565b600060405180830381600087803b1580156102aa57600080fd5b505af11580156102be573d6000803e3d6000fd5b505050505050565b60008060009054906101000a900473ffffffffffffffffffffffffffffffffffffffff16905090565b806000806101000a81548173ffffffffffffffffffffffffffffffffffffffff021916908373ffffffffffffffffffffffffffffffffffffffff16021790555050565b7f349eb6f182a8b26cbbb2750aff45d1c9fdb973007cbc3f49fe24233cb575ac7f8282604051610363929190610657565b60405180910390a15050565b600160009054906101000a900473ffffffffffffffffffffffffffffffffffffffff1681565b7ffcf8df5b109ff7cd4875718d2fc1c8ec93170b92d0dcbe8b86d44942b057ec9a8383836040516103c893929190610680565b60405180910390a1505050565b600073ffffffffffffffffffffffffffffffffffffffff82169050919050565b6000610400826103d5565b9050919050565b610410816103f5565b82525050565b6000819050919050565b61042981610416565b82525050565b60006060820190506104446000830186610407565b6104516020830185610420565b61045e6040830184610420565b949350505050565b600060208201905061047b6000830184610407565b92915050565b600080fd5b61048f816103f5565b811461049a57600080fd5b50565b6000813590506104ac81610486565b92915050565b6000602082840312156104c8576104c7610481565b5b60006104d68482850161049d565b91505092915050565b6104e881610416565b81146104f357600080fd5b50565b600081359050610505816104df565b92915050565b6000806040838503121561052257610521610481565b5b60006105308582860161049d565b9250506020610541858286016104f6565b9150509250929050565b6000610556826103d5565b9050919050565b6105668161054b565b82525050565b6000602082019050610581600083018461055d565b92915050565b6000806000606084860312156105a05761059f610481565b5b60006105ae8682870161049d565b93505060206105bf8682870161049d565b92505060406105d0868287016104f6565b9150509250925092565b600082825260208201905092915050565b7f756e696e697469616c697a656420746f6b656e41646472000000000000000000600082015250565b60006106216017836105da565b915061062c826105eb565b602082019050919050565b6000602082019050818103600083015261065081610614565b9050919050565b600060408201905061066c6000830185610407565b6106796020830184610420565b9392505050565b60006060820190506106956000830186610407565b6106a26020830185610407565b6106af6040830184610420565b94935050505056fea2646970667358221220ce4b8f84759acd08151db5971f559051f219cc89312e61767853c800a08d699f64736f6c63430008110033",
  "linkReferences": {},
  "deployedLinkReferences": {}
}