{
  "_format": "hh-sol-artifact-1",
  "contractName": "Wallet",
  "sourceName": "contracts/Wallet.sol",
  "abi": [
    {
      "inputs": [],
      "stateMutability": "nonpayable",
      "type": "constructor"
    },
    {
      "anonymous": false,
      "inputs": [
        {
          "indexed": false,
          "internalType": "uint256",
          "name": "layerNum",
          "type": "uint256"
        },
        {
          "indexed": false,
          "internalType": "string",
          "name": "layerType",
          "type": "string"
        },
        {
          "indexed": false,
          "internalType": "bool",
          "name": "started",
          "type": "bool"
        },
        {
          "indexed": false,
          "internalType": "bool",
          "name": "success",
          "type": "bool"
        },
        {
          "indexed": false,
          "internalType": "bool",
          "name": "failure",
          "type": "bool"
        }
      ],
      "name": "LogLayer",
      "type": "event"
    },
    {
      "anonymous": false,
      "inputs": [
        {
          "indexed": false,
          "internalType": "address",
          "name": "sender",
          "type": "address"
        },
        {
          "indexed": false,
          "internalType": "uint256",
          "name": "amount",
          "type": "uint256"
        },
        {
          "indexed": false,
          "internalType": "uint256",
          "name": "balance",
          "type": "uint256"
        }
      ],
      "name": "Receive",
      "type": "event"
    },
    {
      "anonymous": false,
      "inputs": [
        {
          "indexed": false,
          "internalType": "address",
          "name": "receiver",
          "type": "address"
        },
        {
          "indexed": false,
          "internalType": "uint256",
          "name": "amount",
          "type": "uint256"
        }
      ],
      "name": "StartTransfer",
      "type": "event"
    },
    {
      "inputs": [],
      "name": "getTokenAddress",
      "outputs": [
        {
          "internalType": "address",
          "name": "",
          "type": "address"
        }
      ],
      "stateMutability": "nonpayable",
      "type": "function"
    },
    {
      "inputs": [],
      "name": "initTransferRequirements",
      "outputs": [],
      "stateMutability": "nonpayable",
      "type": "function"
    },
    {
      "inputs": [],
      "name": "owner",
      "outputs": [
        {
          "internalType": "address payable",
          "name": "",
          "type": "address"
        }
      ],
      "stateMutability": "view",
      "type": "function"
    },
    {
      "inputs": [
        {
          "internalType": "address",
          "name": "_tokenAddr",
          "type": "address"
        }
      ],
      "name": "setTokenAddress",
      "outputs": [],
      "stateMutability": "nonpayable",
      "type": "function"
    },
    {
      "inputs": [
        {
          "internalType": "address",
          "name": "receiver",
          "type": "address"
        },
        {
          "internalType": "uint256",
          "name": "amount",
          "type": "uint256"
        }
      ],
      "name": "startTransfer",
      "outputs": [],
      "stateMutability": "nonpayable",
      "type": "function"
    },
    {
      "inputs": [
        {
          "internalType": "address",
          "name": "sender",
          "type": "address"
        },
        {
          "internalType": "address",
          "name": "receiver",
          "type": "address"
        },
        {
          "internalType": "uint256",
          "name": "amount",
          "type": "uint256"
        }
      ],
      "name": "startTransferFrom",
      "outputs": [],
      "stateMutability": "nonpayable",
      "type": "function"
    },
    {
      "stateMutability": "payable",
      "type": "receive"
    }
  ],
  "bytecode": "0x608060405234801561001057600080fd5b5033600160006101000a81548173ffffffffffffffffffffffffffffffffffffffff021916908373ffffffffffffffffffffffffffffffffffffffff160217905550611ca8806100616000396000f3fe6080604052600436106100595760003560e01c806310fe9ae8146100b457806326a4e8d2146100df5780634c683c8314610108578063604374f01461011f5780638da5cb5b14610148578063e4f6985214610173576100af565b366100af577f7baf877f743c7240b0ee6b03d05a9d82c1d5b9c590beb886830f6f8edd07d88133344760405161009193929190610c75565b60405180910390a1600033905060003490506100ad828261019c565b005b600080fd5b3480156100c057600080fd5b506100c96102bc565b6040516100d69190610cac565b60405180910390f35b3480156100eb57600080fd5b5061010660048036038101906101019190610d07565b6102e5565b005b34801561011457600080fd5b5061011d610328565b005b34801561012b57600080fd5b5061014660048036038101906101419190610d60565b610894565b005b34801561015457600080fd5b5061015d6108a2565b60405161016a9190610dc1565b60405180910390f35b34801561017f57600080fd5b5061019a60048036038101906101959190610ddc565b6108c8565b005b600073ffffffffffffffffffffffffffffffffffffffff1660008054906101000a900473ffffffffffffffffffffffffffffffffffffffff1673ffffffffffffffffffffffffffffffffffffffff160361022b576040517f08c379a000000000000000000000000000000000000000000000000000000000815260040161022290610e8c565b60405180910390fd5b60008054906101000a900473ffffffffffffffffffffffffffffffffffffffff1673ffffffffffffffffffffffffffffffffffffffff166340c10f1983836040518363ffffffff1660e01b8152600401610286929190610eac565b600060405180830381600087803b1580156102a057600080fd5b505af11580156102b4573d6000803e3d6000fd5b505050505050565b60008060009054906101000a900473ffffffffffffffffffffffffffffffffffffffff16905090565b806000806101000a81548173ffffffffffffffffffffffffffffffffffffffff021916908373ffffffffffffffffffffffffffffffffffffffff16021790555050565b600060405161033690610b67565b604051809103906000f080158015610352573d6000803e3d6000fd5b5090508073ffffffffffffffffffffffffffffffffffffffff1663fad47b3b6040518163ffffffff1660e01b815260040161038c90610f21565b600060405180830381600087803b1580156103a657600080fd5b505af11580156103ba573d6000803e3d6000fd5b5050505060006040516103cc90610b67565b604051809103906000f0801580156103e8573d6000803e3d6000fd5b5090508073ffffffffffffffffffffffffffffffffffffffff1663fad47b3b6040518163ffffffff1660e01b815260040161042290610f8d565b600060405180830381600087803b15801561043c57600080fd5b505af1158015610450573d6000803e3d6000fd5b50505050600060405161046290610b67565b604051809103906000f08015801561047e573d6000803e3d6000fd5b5090508073ffffffffffffffffffffffffffffffffffffffff1663fad47b3b6040518163ffffffff1660e01b81526004016104b890610ff9565b600060405180830381600087803b1580156104d257600080fd5b505af11580156104e6573d6000803e3d6000fd5b505050506005839080600181540180825580915050600190039060005260206000200160009091909190916101000a81548173ffffffffffffffffffffffffffffffffffffffff021916908373ffffffffffffffffffffffffffffffffffffffff1602179055506005829080600181540180825580915050600190039060005260206000200160009091909190916101000a81548173ffffffffffffffffffffffffffffffffffffffff021916908373ffffffffffffffffffffffffffffffffffffffff1602179055506005819080600181540180825580915050600190039060005260206000200160009091909190916101000a81548173ffffffffffffffffffffffffffffffffffffffff021916908373ffffffffffffffffffffffffffffffffffffffff16021790555060005b60058054905081101561088e5760006005828154811061063957610638611019565b5b9060005260206000200160009054906101000a900473ffffffffffffffffffffffffffffffffffffffff16905060008173ffffffffffffffffffffffffffffffffffffffff166373f6a8656040518163ffffffff1660e01b8152600401600060405180830381865afa1580156106b3573d6000803e3d6000fd5b505050506040513d6000823e3d601f19601f820116820180604052508101906106dc91906111a9565b905060008273ffffffffffffffffffffffffffffffffffffffff16631f2698ab6040518163ffffffff1660e01b8152600401602060405180830381865afa15801561072b573d6000803e3d6000fd5b505050506040513d601f19601f8201168201806040525081019061074f919061122a565b905060008373ffffffffffffffffffffffffffffffffffffffff16630b93381b6040518163ffffffff1660e01b8152600401602060405180830381865afa15801561079e573d6000803e3d6000fd5b505050506040513d601f19601f820116820180604052508101906107c2919061122a565b905060008473ffffffffffffffffffffffffffffffffffffffff166376ffb8876040518163ffffffff1660e01b8152600401602060405180830381865afa158015610811573d6000803e3d6000fd5b505050506040513d601f19601f82011682018060405250810190610835919061122a565b90507f76ac75a766753c26152bf13dea9351bee33497f8d44db828bcf750563c6f9c70868585858560405161086e9594939291906112aa565b60405180910390a15050505050808061088690611333565b915050610616565b50505050565b61089e82826108d7565b5050565b600160009054906101000a900473ffffffffffffffffffffffffffffffffffffffff1681565b6108d282826108d7565b505050565b7f349eb6f182a8b26cbbb2750aff45d1c9fdb973007cbc3f49fe24233cb575ac7f8282604051610908929190610eac565b60405180910390a160006040518060a00160405280600160075461092c919061137b565b81526020018473ffffffffffffffffffffffffffffffffffffffff16815260200183815260200160058054806020026020016040519081016040528092919081815260200182805480156109d557602002820191906000526020600020905b8160009054906101000a900473ffffffffffffffffffffffffffffffffffffffff1673ffffffffffffffffffffffffffffffffffffffff168152602001906001019080831161098b575b5050505050815260200160001515815250905060068190806001815401808255809150506001900390600052602060002090600502016000909190919091506000820151816000015560208201518160010160006101000a81548173ffffffffffffffffffffffffffffffffffffffff021916908373ffffffffffffffffffffffffffffffffffffffff160217905550604082015181600201556060820151816003019080519060200190610a8b929190610b74565b5060808201518160040160006101000a81548160ff0219169083151502179055505050610ab781610abc565b505050565b60005b816060015151811015610b6357600082606001518281518110610ae557610ae4611019565b5b602002602001015190508073ffffffffffffffffffffffffffffffffffffffff1663d963b6356040518163ffffffff1660e01b8152600401600060405180830381600087803b158015610b3757600080fd5b505af1158015610b4b573d6000803e3d6000fd5b50505050508080610b5b90611333565b915050610abf565b5050565b6108c3806113b083390190565b828054828255906000526020600020908101928215610bed579160200282015b82811115610bec5782518260006101000a81548173ffffffffffffffffffffffffffffffffffffffff021916908373ffffffffffffffffffffffffffffffffffffffff16021790555091602001919060010190610b94565b5b509050610bfa9190610bfe565b5090565b5b80821115610c17576000816000905550600101610bff565b5090565b600073ffffffffffffffffffffffffffffffffffffffff82169050919050565b6000610c4682610c1b565b9050919050565b610c5681610c3b565b82525050565b6000819050919050565b610c6f81610c5c565b82525050565b6000606082019050610c8a6000830186610c4d565b610c976020830185610c66565b610ca46040830184610c66565b949350505050565b6000602082019050610cc16000830184610c4d565b92915050565b6000604051905090565b600080fd5b600080fd5b610ce481610c3b565b8114610cef57600080fd5b50565b600081359050610d0181610cdb565b92915050565b600060208284031215610d1d57610d1c610cd1565b5b6000610d2b84828501610cf2565b91505092915050565b610d3d81610c5c565b8114610d4857600080fd5b50565b600081359050610d5a81610d34565b92915050565b60008060408385031215610d7757610d76610cd1565b5b6000610d8585828601610cf2565b9250506020610d9685828601610d4b565b9150509250929050565b6000610dab82610c1b565b9050919050565b610dbb81610da0565b82525050565b6000602082019050610dd66000830184610db2565b92915050565b600080600060608486031215610df557610df4610cd1565b5b6000610e0386828701610cf2565b9350506020610e1486828701610cf2565b9250506040610e2586828701610d4b565b9150509250925092565b600082825260208201905092915050565b7f756e696e697469616c697a656420746f6b656e41646472000000000000000000600082015250565b6000610e76601783610e2f565b9150610e8182610e40565b602082019050919050565b60006020820190508181036000830152610ea581610e69565b9050919050565b6000604082019050610ec16000830185610c4d565b610ece6020830184610c66565b9392505050565b7f656d61696c000000000000000000000000000000000000000000000000000000600082015250565b6000610f0b600583610e2f565b9150610f1682610ed5565b602082019050919050565b60006020820190508181036000830152610f3a81610efe565b9050919050565b7f736d730000000000000000000000000000000000000000000000000000000000600082015250565b6000610f77600383610e2f565b9150610f8282610f41565b602082019050919050565b60006020820190508181036000830152610fa681610f6a565b9050919050565b7f7472616e73616374696f6e000000000000000000000000000000000000000000600082015250565b6000610fe3600b83610e2f565b9150610fee82610fad565b602082019050919050565b6000602082019050818103600083015261101281610fd6565b9050919050565b7f4e487b7100000000000000000000000000000000000000000000000000000000600052603260045260246000fd5b600080fd5b600080fd5b6000601f19601f8301169050919050565b7f4e487b7100000000000000000000000000000000000000000000000000000000600052604160045260246000fd5b61109b82611052565b810181811067ffffffffffffffff821117156110ba576110b9611063565b5b80604052505050565b60006110cd610cc7565b90506110d98282611092565b919050565b600067ffffffffffffffff8211156110f9576110f8611063565b5b61110282611052565b9050602081019050919050565b60005b8381101561112d578082015181840152602081019050611112565b60008484015250505050565b600061114c611147846110de565b6110c3565b9050828152602081018484840111156111685761116761104d565b5b61117384828561110f565b509392505050565b600082601f8301126111905761118f611048565b5b81516111a0848260208601611139565b91505092915050565b6000602082840312156111bf576111be610cd1565b5b600082015167ffffffffffffffff8111156111dd576111dc610cd6565b5b6111e98482850161117b565b91505092915050565b60008115159050919050565b611207816111f2565b811461121257600080fd5b50565b600081519050611224816111fe565b92915050565b6000602082840312156112405761123f610cd1565b5b600061124e84828501611215565b91505092915050565b600081519050919050565b600061126d82611257565b6112778185610e2f565b935061128781856020860161110f565b61129081611052565b840191505092915050565b6112a4816111f2565b82525050565b600060a0820190506112bf6000830188610c66565b81810360208301526112d18187611262565b90506112e0604083018661129b565b6112ed606083018561129b565b6112fa608083018461129b565b9695505050505050565b7f4e487b7100000000000000000000000000000000000000000000000000000000600052601160045260246000fd5b600061133e82610c5c565b91507fffffffffffffffffffffffffffffffffffffffffffffffffffffffffffffffff82036113705761136f611304565b5b600182019050919050565b600061138682610c5c565b915061139183610c5c565b92508282019050808211156113a9576113a8611304565b5b9291505056fe608060405234801561001057600080fd5b506108a3806100206000396000f3fe608060405234801561001057600080fd5b50600436106100885760003560e01c806376ffb8871161005b57806376ffb887146100f1578063a6cffbba1461010f578063d963b63514610119578063fad47b3b1461012357610088565b80630b93381b1461008d5780631f2698ab146100ab57806347a58108146100c957806373f6a865146100d3575b600080fd5b61009561013f565b6040516100a29190610326565b60405180910390f35b6100b3610150565b6040516100c09190610326565b60405180910390f35b6100d1610163565b005b6100db6101b5565b6040516100e891906103d1565b60405180910390f35b6100f9610243565b6040516101069190610326565b60405180910390f35b610117610256565b005b6101216102a7565b005b61013d6004803603810190610138919061053c565b6102f8565b005b60018054906101000a900460ff1681565b600160009054906101000a900460ff1681565b6000600160006101000a81548160ff02191690831515021790555060018060016101000a81548160ff0219169083151502179055506000600160026101000a81548160ff021916908315150217905550565b600080546101c2906105b4565b80601f01602080910402602001604051908101604052809291908181526020018280546101ee906105b4565b801561023b5780601f106102105761010080835404028352916020019161023b565b820191906000526020600020905b81548152906001019060200180831161021e57829003601f168201915b505050505081565b600160029054906101000a900460ff1681565b6000600160006101000a81548160ff02191690831515021790555060006001806101000a81548160ff02191690831515021790555060018060026101000a81548160ff021916908315150217905550565b60018060006101000a81548160ff02191690831515021790555060006001806101000a81548160ff0219169083151502179055506000600160026101000a81548160ff021916908315150217905550565b8060009081610307919061079b565b5050565b60008115159050919050565b6103208161030b565b82525050565b600060208201905061033b6000830184610317565b92915050565b600081519050919050565b600082825260208201905092915050565b60005b8381101561037b578082015181840152602081019050610360565b60008484015250505050565b6000601f19601f8301169050919050565b60006103a382610341565b6103ad818561034c565b93506103bd81856020860161035d565b6103c681610387565b840191505092915050565b600060208201905081810360008301526103eb8184610398565b905092915050565b6000604051905090565b600080fd5b600080fd5b600080fd5b600080fd5b7f4e487b7100000000000000000000000000000000000000000000000000000000600052604160045260246000fd5b61044982610387565b810181811067ffffffffffffffff8211171561046857610467610411565b5b80604052505050565b600061047b6103f3565b90506104878282610440565b919050565b600067ffffffffffffffff8211156104a7576104a6610411565b5b6104b082610387565b9050602081019050919050565b82818337600083830152505050565b60006104df6104da8461048c565b610471565b9050828152602081018484840111156104fb576104fa61040c565b5b6105068482856104bd565b509392505050565b600082601f83011261052357610522610407565b5b81356105338482602086016104cc565b91505092915050565b600060208284031215610552576105516103fd565b5b600082013567ffffffffffffffff8111156105705761056f610402565b5b61057c8482850161050e565b91505092915050565b7f4e487b7100000000000000000000000000000000000000000000000000000000600052602260045260246000fd5b600060028204905060018216806105cc57607f821691505b6020821081036105df576105de610585565b5b50919050565b60008190508160005260206000209050919050565b60006020601f8301049050919050565b600082821b905092915050565b6000600883026106477fffffffffffffffffffffffffffffffffffffffffffffffffffffffffffffffff8261060a565b610651868361060a565b95508019841693508086168417925050509392505050565b6000819050919050565b6000819050919050565b600061069861069361068e84610669565b610673565b610669565b9050919050565b6000819050919050565b6106b28361067d565b6106c66106be8261069f565b848454610617565b825550505050565b600090565b6106db6106ce565b6106e68184846106a9565b505050565b5b8181101561070a576106ff6000826106d3565b6001810190506106ec565b5050565b601f82111561074f57610720816105e5565b610729846105fa565b81016020851015610738578190505b61074c610744856105fa565b8301826106eb565b50505b505050565b600082821c905092915050565b600061077260001984600802610754565b1980831691505092915050565b600061078b8383610761565b9150826002028217905092915050565b6107a482610341565b67ffffffffffffffff8111156107bd576107bc610411565b5b6107c782546105b4565b6107d282828561070e565b600060209050601f83116001811461080557600084156107f3578287015190505b6107fd858261077f565b865550610865565b601f198416610813866105e5565b60005b8281101561083b57848901518255600182019150602085019450602081019050610816565b868310156108585784890151610854601f891682610761565b8355505b6001600288020188555050505b50505050505056fea2646970667358221220bae808041c929ea933bf348af322368faaa8e82d077938a87975d20c69a85b3c64736f6c63430008110033a2646970667358221220c85ce006425b80fe2b41f8f6ff6d66a1f33a85d6a3456ce6484c6bffe286bfa964736f6c63430008110033",
  "linkReferences": {},
  "deployedLinkReferences": {}
}